{
    "abi": [
        {
            "type": "constructor",
            "inputs": [
                {
                    "name": "_relayers",
                    "type": "address[]",
                    "internalType": "address[]"
                },
                {
                    "name": "_permit2",
                    "type": "address",
                    "internalType": "address"
                }
            ],
            "stateMutability": "nonpayable"
        },
        {
            "type": "function",
            "name": "PERMIT2",
            "inputs": [],
            "outputs": [
                {
                    "name": "",
                    "type": "address",
                    "internalType": "address"
                }
            ],
            "stateMutability": "view"
        },
        {
            "type": "function",
            "name": "batchPaymentMSMT",
            "inputs": [
                {
                    "name": "relayerIndex",
                    "type": "uint16",
                    "internalType": "uint16"
                },
                {
                    "name": "froms",
                    "type": "address[]",
                    "internalType": "address[]"
                },
                {
                    "name": "tos",
                    "type": "address[]",
                    "internalType": "address[]"
                },
                {
                    "name": "tokens",
                    "type": "address[]",
                    "internalType": "contract ERC20[]"
                },
                {
                    "name": "amounts",
                    "type": "uint256[]",
                    "internalType": "uint256[]"
                },
                {
                    "name": "paymentsNC",
                    "type": "tuple[]",
                    "internalType": "struct BundlePayV2.BatchPaymentSSPermit[]",
                    "components": [
                        {
                            "name": "from",
                            "type": "address",
                            "internalType": "address"
                        },
                        {
                            "name": "permit",
                            "type": "tuple",
                            "internalType": "struct ISignatureTransfer.PermitBatchTransferFrom",
                            "components": [
                                {
                                    "name": "permitted",
                                    "type": "tuple[]",
                                    "internalType": "struct ISignatureTransfer.TokenPermissions[]",
                                    "components": [
                                        {
                                            "name": "token",
                                            "type": "address",
                                            "internalType": "address"
                                        },
                                        {
                                            "name": "amount",
                                            "type": "uint256",
                                            "internalType": "uint256"
                                        }
                                    ]
                                },
                                {
                                    "name": "nonce",
                                    "type": "uint256",
                                    "internalType": "uint256"
                                },
                                {
                                    "name": "deadline",
                                    "type": "uint256",
                                    "internalType": "uint256"
                                }
                            ]
                        },
                        {
                            "name": "transferDetails",
                            "type": "tuple[]",
                            "internalType": "struct ISignatureTransfer.SignatureTransferDetails[]",
                            "components": [
                                {
                                    "name": "to",
                                    "type": "address",
                                    "internalType": "address"
                                },
                                {
                                    "name": "requestedAmount",
                                    "type": "uint256",
                                    "internalType": "uint256"
                                }
                            ]
                        },
                        {
                            "name": "signature",
                            "type": "bytes",
                            "internalType": "bytes"
                        }
                    ]
                }
            ],
            "outputs": [],
            "stateMutability": "nonpayable"
        },
        {
            "type": "function",
            "name": "batchPaymentSSMT",
            "inputs": [
                {
                    "name": "relayerIndex",
                    "type": "uint16",
                    "internalType": "uint16"
                },
                {
                    "name": "from",
                    "type": "address",
                    "internalType": "address"
                },
                {
                    "name": "tokens",
                    "type": "address[]",
                    "internalType": "contract ERC20[]"
                },
                {
                    "name": "tos",
                    "type": "address[]",
                    "internalType": "address[]"
                },
                {
                    "name": "amounts",
                    "type": "uint256[]",
                    "internalType": "uint256[]"
                }
            ],
            "outputs": [],
            "stateMutability": "nonpayable"
        },
        {
            "type": "function",
            "name": "batchPaymentSSPermit",
            "inputs": [
                {
                    "name": "relayerIndex",
                    "type": "uint16",
                    "internalType": "uint16"
                },
                {
                    "name": "pay",
                    "type": "tuple",
                    "internalType": "struct BundlePayV2.BatchPaymentSSPermit",
                    "components": [
                        {
                            "name": "from",
                            "type": "address",
                            "internalType": "address"
                        },
                        {
                            "name": "permit",
                            "type": "tuple",
                            "internalType": "struct ISignatureTransfer.PermitBatchTransferFrom",
                            "components": [
                                {
                                    "name": "permitted",
                                    "type": "tuple[]",
                                    "internalType": "struct ISignatureTransfer.TokenPermissions[]",
                                    "components": [
                                        {
                                            "name": "token",
                                            "type": "address",
                                            "internalType": "address"
                                        },
                                        {
                                            "name": "amount",
                                            "type": "uint256",
                                            "internalType": "uint256"
                                        }
                                    ]
                                },
                                {
                                    "name": "nonce",
                                    "type": "uint256",
                                    "internalType": "uint256"
                                },
                                {
                                    "name": "deadline",
                                    "type": "uint256",
                                    "internalType": "uint256"
                                }
                            ]
                        },
                        {
                            "name": "transferDetails",
                            "type": "tuple[]",
                            "internalType": "struct ISignatureTransfer.SignatureTransferDetails[]",
                            "components": [
                                {
                                    "name": "to",
                                    "type": "address",
                                    "internalType": "address"
                                },
                                {
                                    "name": "requestedAmount",
                                    "type": "uint256",
                                    "internalType": "uint256"
                                }
                            ]
                        },
                        {
                            "name": "signature",
                            "type": "bytes",
                            "internalType": "bytes"
                        }
                    ]
                }
            ],
            "outputs": [],
            "stateMutability": "nonpayable"
        },
        {
            "type": "function",
            "name": "batchPaymentSSST",
            "inputs": [
                {
                    "name": "relayerIndex",
                    "type": "uint16",
                    "internalType": "uint16"
                },
                {
                    "name": "from",
                    "type": "address",
                    "internalType": "address"
                },
                {
                    "name": "token",
                    "type": "address",
                    "internalType": "contract ERC20"
                },
                {
                    "name": "tos",
                    "type": "address[]",
                    "internalType": "address[]"
                },
                {
                    "name": "amounts",
                    "type": "uint256[]",
                    "internalType": "uint256[]"
                }
            ],
            "outputs": [],
            "stateMutability": "nonpayable"
        },
        {
            "type": "function",
            "name": "relayers",
            "inputs": [
                {
                    "name": "",
                    "type": "uint16",
                    "internalType": "uint16"
                }
            ],
            "outputs": [
                {
                    "name": "",
                    "type": "address",
                    "internalType": "address"
                }
            ],
            "stateMutability": "view"
        },
        {
            "type": "function",
            "name": "setRelayer",
            "inputs": [
                {
                    "name": "callerRelayerIndex",
                    "type": "uint16",
                    "internalType": "uint16"
                },
                {
                    "name": "relayerIndex",
                    "type": "uint16",
                    "internalType": "uint16"
                },
                {
                    "name": "relayer",
                    "type": "address",
                    "internalType": "address"
                }
            ],
            "outputs": [],
            "stateMutability": "nonpayable"
        },
        {
            "type": "function",
            "name": "setRelayers",
            "inputs": [
                {
                    "name": "callerRelayerIndex",
                    "type": "uint16",
                    "internalType": "uint16"
                },
                {
                    "name": "relayerIndices",
                    "type": "uint16[]",
                    "internalType": "uint16[]"
                },
                {
                    "name": "_relayers",
                    "type": "address[]",
                    "internalType": "address[]"
                }
            ],
            "outputs": [],
            "stateMutability": "nonpayable"
        },
        {
            "type": "function",
            "name": "singlePaymentSSSTSR",
            "inputs": [
                {
                    "name": "relayerIndex",
                    "type": "uint16",
                    "internalType": "uint16"
                },
                {
                    "name": "from",
                    "type": "address",
                    "internalType": "address"
                },
                {
                    "name": "to",
                    "type": "address",
                    "internalType": "address"
                },
                {
                    "name": "token",
                    "type": "address",
                    "internalType": "contract ERC20"
                },
                {
                    "name": "amount",
                    "type": "uint256",
                    "internalType": "uint256"
                }
            ],
            "outputs": [],
            "stateMutability": "nonpayable"
        },
        {
            "type": "error",
            "name": "InvalidRelayer",
            "inputs": []
        },
        {
            "type": "error",
            "name": "ZeroAddress",
            "inputs": []
        }
    ],
    "bytecode": {
        "object": "0x60a06040523461016f57610d828038038061001981610187565b92833981019060408183031261016f5780516001600160401b03811161016f5781019180601f8401121561016f578251926001600160401b038411610173578360051b9060208061006b818501610187565b80978152019282010192831161016f57602001905b8282106101575784610094602086016101ac565b6001600160a01b038116156101295760805280515f5b61ffff81169082821015610138576001600160a01b036100ca83866101c0565b5116156101295761ffff916001600160a01b036100e782876101c0565b5116905f525f60205260405f209060018060a01b03198254161790551661ffff8114610115576001016100aa565b634e487b7160e01b5f52601160045260245ffd5b63d92e233d60e01b5f5260045ffd5b604051610b9990816101e982396080518181816102760152610adb0152f35b60208091610164846101ac565b815201910190610080565b5f80fd5b634e487b7160e01b5f52604160045260245ffd5b6040519190601f01601f191682016001600160401b0381118382101761017357604052565b51906001600160a01b038216820361016f57565b80518210156101d45760209160051b010190565b634e487b7160e01b5f52603260045260245ffdfe60806040526004361015610011575f80fd5b5f3560e01c806309918b28146100a45780630c11b5791461009f5780630d7fc3201461009a5780636afdd8501461009557806385290e1a146100905780638ab4e3001461008b5780638adbb6b814610086578063bc8960ab146100815763d2548cab1461007c575f80fd5b61054a565b6104c3565b610404565b6103b2565b6102a5565b610261565b610199565b61012f565b346100e95760603660031901126100e9576100bd6100ed565b6100c56100fe565b6100da604435926100d58461011e565b610844565b5f525f60205260405f20555f80f35b5f80fd5b6004359061ffff821682036100e957565b6024359061ffff821682036100e957565b359061ffff821682036100e957565b6001600160a01b038116036100e957565b346100e95760203660031901126100e95761ffff61014b6100ed565b165f525f602052602060018060a01b0360405f205416604051908152f35b9181601f840112156100e9578235916001600160401b0383116100e9576020808501948460051b0101116100e957565b346100e95760c03660031901126100e9576101b26100ed565b6024356001600160401b0381116100e9576101d1903690600401610169565b916044356001600160401b0381116100e9576101f1903690600401610169565b906064356001600160401b0381116100e957610211903690600401610169565b906084356001600160401b0381116100e957610231903690600401610169565b94909360a435986001600160401b038a116100e95761025761025f9a3690600401610169565b9990986106b0565b005b346100e9575f3660031901126100e9576040517f00000000000000000000000000000000000000000000000000000000000000006001600160a01b03168152602090f35b346100e95760603660031901126100e9576102be6100ed565b6024356001600160401b0381116100e9576102dd903690600401610169565b60443592916001600160401b0384116100e957610301610309943690600401610169565b949093610844565b610312826107c0565b91610320604051938461079a565b808352602083019060051b8201913683116100e957905b82821061039a5750505061034a836107c0565b91610358604051938461079a565b838352602083019360051b8101903682116100e957935b8185106103805761025f8484610b2a565b60208091863561038f8161011e565b81520194019361036f565b602080916103a78461010f565b815201910190610337565b346100e95760a03660031901126100e95761025f6103ce6100ed565b6024356103da8161011e565b604435906103e78261011e565b6064356103f38161011e565b6103ff60843594610844565b610863565b346100e95760a03660031901126100e95761041d6100ed565b6024356104298161011e565b604435906104368261011e565b6064356001600160401b0381116100e957610455903690600401610169565b929093608435926001600160401b0384116100e95761047b610483943690600401610169565b949092610844565b5f5b85811061048e57005b806104bd61049f600193898b6105f0565b356104a98161011e565b6104b48389886105f0565b35908588610863565b01610485565b346100e95760403660031901126100e9576104dc6100ed565b6024356001600160401b0381116100e9578060040190608060031982360301126100e95761050c61025f93610844565b606482359161051a8361011e565b61054261052a6024830186610634565b946105386044840182610649565b949093019061067e565b9490936109f0565b346100e95760a03660031901126100e9576105636100ed565b60243561056f8161011e565b6044356001600160401b0381116100e95761058e903690600401610169565b6064939193356001600160401b0381116100e9576105b0903690600401610169565b91608435956001600160401b0387116100e9576105d461025f973690600401610169565b9690956107d7565b634e487b7160e01b5f52603260045260245ffd5b91908110156106005760051b0190565b6105dc565b3561060f8161011e565b90565b91908110156106005760051b81013590607e19813603018212156100e9570190565b903590605e19813603018212156100e9570190565b903590601e19813603018212156100e957018035906001600160401b0382116100e957602001918160061b360383136100e957565b903590601e19813603018212156100e957018035906001600160401b0382116100e9576020019181360383136100e957565b6106c5909a999a989493959897969197610844565b5f5b838110610730575050505050505050505f5b8181106106e557505050565b8061072a6106f66001938587610612565b6106ff81610605565b61054261070f6020840184610634565b9261071d6040820182610649565b929091606081019061067e565b016106d9565b80610780898989610779858f610773610762838f938f908f8f9e60019f91610767610762836107629561076d976105f0565b610605565b9d6105f0565b976105f0565b946105f0565b3592610863565b016106c7565b634e487b7160e01b5f52604160045260245ffd5b90601f801991011681019081106001600160401b038211176107bb57604052565b610786565b6001600160401b0381116107bb5760051b60200190565b6107eb909897989694959296939193610844565b5f5b8281106107ff57505050505050509050565b8061083e878b876107798561082d818f61081d60019b8d8f936105f0565b35976108288961011e565b6105f0565b35936108388561011e565b8c6105f0565b016107ed565b5f525f60205260405f2054330361085757565b63b81fa7795f5260045ffd5b6040516323b872dd60e01b81526001600160a01b03928316600482015292909116602483015260448201929092526020915f9160649183905af13d15601f3d1160015f5114161716156108b257565b60405162461bcd60e51b81526020600482015260146024820152731514905394d1915497d19493d357d1905253115160621b6044820152606490fd5b6020809180356108fd8161011e565b6001600160a01b031684520135910152565b916020908281520191905f5b8181106109285750505090565b9091926040808261093b600194886108ee565b01940192910161091b565b908060209392818452848401375f828201840152601f01601f1916010190565b3d1561099f573d906001600160401b0382116107bb5760405191610994601f8201601f19166020018461079a565b82523d5f602084013e565b606090565b156109ab57565b60405162461bcd60e51b815260206004820152601e60248201527f7065726d69745472616e7366657246726f6d2063616c6c206661696c656400006044820152606490fd5b92939094919460405194602086019663edd9444b60e01b8852608060248801526101048701928035601e19823603018112156100e9578101602081359101946001600160401b0382116100e9578160061b360386136100e9578190606060a48c015252610124890194905f5b818110610b0c5750505095610b0a98958895610ab7610aa5610ad6975f9c97610ac89760408f9e602081013560c48d0152013560e48b01526023198a84030160448b015261090f565b6001600160a01b039094166064870152565b848303602319016084860152610946565b03601f19810183528261079a565b5190827f00000000000000000000000000000000000000000000000000000000000000005af1610b04610966565b506109a4565b565b90919560408082610b1f6001948b6108ee565b019701929101610a5c565b908151915f5b838110610b3d5750505050565b8060019160051b60208082860101519186010151905f525f60205260405f205501610b3056fea2646970667358221220f06c531fe4691942af703664fa036a17da2431e8b4660b8e35ed8b2e260fd7d364736f6c634300081b0033",
        "linkReferences": {}
    },
    "methodIdentifiers": {
        "PERMIT2()": "6afdd850",
        "batchPaymentMSMT(uint16,address[],address[],address[],uint256[],(address,((address,uint256)[],uint256,uint256),(address,uint256)[],bytes)[])": "0d7fc320",
        "batchPaymentSSMT(uint16,address,address[],address[],uint256[])": "d2548cab",
        "batchPaymentSSPermit(uint16,(address,((address,uint256)[],uint256,uint256),(address,uint256)[],bytes))": "bc8960ab",
        "batchPaymentSSST(uint16,address,address,address[],uint256[])": "8adbb6b8",
        "relayers(uint16)": "0c11b579",
        "setRelayer(uint16,uint16,address)": "09918b28",
        "setRelayers(uint16,uint16[],address[])": "85290e1a",
        "singlePaymentSSSTSR(uint16,address,address,address,uint256)": "8ab4e300"
    },
    "id": 19
}